{
    "_format": "hh-sol-artifact-1",
    "contractName": "Bandada",
    "sourceName": "contracts/Bandada.sol",
    "abi": [
        {
            "anonymous": false,
            "inputs": [
                {
                    "indexed": true,
                    "internalType": "uint256",
                    "name": "id",
                    "type": "uint256"
                },
                {
                    "indexed": false,
                    "internalType": "uint256",
                    "name": "fingerprint",
                    "type": "uint256"
                }
            ],
            "name": "GroupUpdated",
            "type": "event"
        },
        {
            "anonymous": false,
            "inputs": [
                {
                    "indexed": true,
                    "internalType": "address",
                    "name": "previousOwner",
                    "type": "address"
                },
                {
                    "indexed": true,
                    "internalType": "address",
                    "name": "newOwner",
                    "type": "address"
                }
            ],
            "name": "OwnershipTransferred",
            "type": "event"
        },
        {
            "inputs": [
                {
                    "internalType": "uint256",
                    "name": "",
                    "type": "uint256"
                }
            ],
            "name": "groups",
            "outputs": [
                {
                    "internalType": "uint256",
                    "name": "",
                    "type": "uint256"
                }
            ],
            "stateMutability": "view",
            "type": "function"
        },
        {
            "inputs": [],
            "name": "owner",
            "outputs": [
                {
                    "internalType": "address",
                    "name": "",
                    "type": "address"
                }
            ],
            "stateMutability": "view",
            "type": "function"
        },
        {
            "inputs": [],
            "name": "renounceOwnership",
            "outputs": [],
            "stateMutability": "nonpayable",
            "type": "function"
        },
        {
            "inputs": [
                {
                    "internalType": "address",
                    "name": "newOwner",
                    "type": "address"
                }
            ],
            "name": "transferOwnership",
            "outputs": [],
            "stateMutability": "nonpayable",
            "type": "function"
        },
        {
            "inputs": [
                {
                    "components": [
                        {
                            "internalType": "uint256",
                            "name": "id",
                            "type": "uint256"
                        },
                        {
                            "internalType": "uint256",
                            "name": "fingerprint",
                            "type": "uint256"
                        }
                    ],
                    "internalType": "struct IBandada.Group[]",
                    "name": "_groups",
                    "type": "tuple[]"
                }
            ],
            "name": "updateGroups",
            "outputs": [],
            "stateMutability": "nonpayable",
            "type": "function"
        }
    ],
    "bytecode": "0x608060405234801561001057600080fd5b5061002d61002261003260201b60201c565b61003a60201b60201c565b6100fe565b600033905090565b60008060009054906101000a900473ffffffffffffffffffffffffffffffffffffffff169050816000806101000a81548173ffffffffffffffffffffffffffffffffffffffff021916908373ffffffffffffffffffffffffffffffffffffffff1602179055508173ffffffffffffffffffffffffffffffffffffffff168173ffffffffffffffffffffffffffffffffffffffff167f8be0079c531659141344cd1fd0a4f28419497f9722a3daafe3b4186f6b6457e060405160405180910390a35050565b61079b8061010d6000396000f3fe608060405234801561001057600080fd5b50600436106100575760003560e01c8063125863cb1461005c578063715018a6146100785780638da5cb5b1461008257806396324bd4146100a0578063f2fde38b146100d0575b600080fd5b6100766004803603810190610071919061052a565b6100ec565b005b61008061026a565b005b61008a61027e565b60405161009791906105fc565b60405180910390f35b6100ba60048036038101906100b5919061056f565b6102a7565b6040516100c79190610657565b60405180910390f35b6100ea60048036038101906100e59190610501565b6102bf565b005b6100f4610343565b60005b828290508110156102655782828281811061013b577f4e487b7100000000000000000000000000000000000000000000000000000000600052603260045260246000fd5b9050604002016020013560016000858585818110610182577f4e487b7100000000000000000000000000000000000000000000000000000000600052603260045260246000fd5b905060400201600001358152602001908152602001600020819055508282828181106101d7577f4e487b7100000000000000000000000000000000000000000000000000000000600052603260045260246000fd5b905060400201600001357f65659fbf3bab178ce96dcb4ea95ba3900cae36f9426e9920b7940995f62b06bf84848481811061023b577f4e487b7100000000000000000000000000000000000000000000000000000000600052603260045260246000fd5b905060400201602001356040516102529190610657565b60405180910390a28060010190506100f7565b505050565b610272610343565b61027c60006103c1565b565b60008060009054906101000a900473ffffffffffffffffffffffffffffffffffffffff16905090565b60016020528060005260406000206000915090505481565b6102c7610343565b600073ffffffffffffffffffffffffffffffffffffffff168173ffffffffffffffffffffffffffffffffffffffff161415610337576040517f08c379a000000000000000000000000000000000000000000000000000000000815260040161032e90610617565b60405180910390fd5b610340816103c1565b50565b61034b610485565b73ffffffffffffffffffffffffffffffffffffffff1661036961027e565b73ffffffffffffffffffffffffffffffffffffffff16146103bf576040517f08c379a00000000000000000000000000000000000000000000000000000000081526004016103b690610637565b60405180910390fd5b565b60008060009054906101000a900473ffffffffffffffffffffffffffffffffffffffff169050816000806101000a81548173ffffffffffffffffffffffffffffffffffffffff021916908373ffffffffffffffffffffffffffffffffffffffff1602179055508173ffffffffffffffffffffffffffffffffffffffff168173ffffffffffffffffffffffffffffffffffffffff167f8be0079c531659141344cd1fd0a4f28419497f9722a3daafe3b4186f6b6457e060405160405180910390a35050565b600033905090565b60008135905061049c81610737565b92915050565b60008083601f8401126104b457600080fd5b8235905067ffffffffffffffff8111156104cd57600080fd5b6020830191508360408202830111156104e557600080fd5b9250929050565b6000813590506104fb8161074e565b92915050565b60006020828403121561051357600080fd5b60006105218482850161048d565b91505092915050565b6000806020838503121561053d57600080fd5b600083013567ffffffffffffffff81111561055757600080fd5b610563858286016104a2565b92509250509250929050565b60006020828403121561058157600080fd5b600061058f848285016104ec565b91505092915050565b6105a181610683565b82525050565b60006105b4602683610672565b91506105bf826106bf565b604082019050919050565b60006105d7602083610672565b91506105e28261070e565b602082019050919050565b6105f6816106b5565b82525050565b60006020820190506106116000830184610598565b92915050565b60006020820190508181036000830152610630816105a7565b9050919050565b60006020820190508181036000830152610650816105ca565b9050919050565b600060208201905061066c60008301846105ed565b92915050565b600082825260208201905092915050565b600061068e82610695565b9050919050565b600073ffffffffffffffffffffffffffffffffffffffff82169050919050565b6000819050919050565b7f4f776e61626c653a206e6577206f776e657220697320746865207a65726f206160008201527f6464726573730000000000000000000000000000000000000000000000000000602082015250565b7f4f776e61626c653a2063616c6c6572206973206e6f7420746865206f776e6572600082015250565b61074081610683565b811461074b57600080fd5b50565b610757816106b5565b811461076257600080fd5b5056fea26469706673582212200e5c3dcf5770ee544741fbdd4134902b2e427d740185f3d0c72289cf2d2a3a0964736f6c63430008040033",
    "linkReferences": {},
    "deployedLinkReferences": {}
}