{
    "_format": "hh-sol-artifact-1",
    "contractName": "Bandada",
    "sourceName": "contracts/Bandada.sol",
    "abi": [
        {
            "anonymous": false,
            "inputs": [
                {
                    "indexed": true,
                    "internalType": "uint256",
                    "name": "id",
                    "type": "uint256"
                },
                {
                    "indexed": false,
                    "internalType": "uint256",
                    "name": "fingerprint",
                    "type": "uint256"
                }
            ],
            "name": "GroupUpdated",
            "type": "event"
        },
        {
            "anonymous": false,
            "inputs": [
                {
                    "indexed": true,
                    "internalType": "address",
                    "name": "previousOwner",
                    "type": "address"
                },
                {
                    "indexed": true,
                    "internalType": "address",
                    "name": "newOwner",
                    "type": "address"
                }
            ],
            "name": "OwnershipTransferred",
            "type": "event"
        },
        {
            "inputs": [
                {
                    "internalType": "uint256",
                    "name": "",
                    "type": "uint256"
                },
                {
                    "internalType": "uint256",
                    "name": "",
                    "type": "uint256"
                }
            ],
            "name": "fingerprintCreationDates",
            "outputs": [
                {
                    "internalType": "uint256",
                    "name": "",
                    "type": "uint256"
                }
            ],
            "stateMutability": "view",
            "type": "function"
        },
        {
            "inputs": [
                {
                    "internalType": "uint256",
                    "name": "",
                    "type": "uint256"
                }
            ],
            "name": "fingerprintDuration",
            "outputs": [
                {
                    "internalType": "uint256",
                    "name": "",
                    "type": "uint256"
                }
            ],
            "stateMutability": "view",
            "type": "function"
        },
        {
            "inputs": [
                {
                    "internalType": "uint256",
                    "name": "groupId",
                    "type": "uint256"
                },
                {
                    "internalType": "uint256",
                    "name": "fingerprint",
                    "type": "uint256"
                }
            ],
            "name": "getFingerprintCreationDate",
            "outputs": [
                {
                    "internalType": "uint256",
                    "name": "",
                    "type": "uint256"
                }
            ],
            "stateMutability": "view",
            "type": "function"
        },
        {
            "inputs": [
                {
                    "internalType": "uint256",
                    "name": "",
                    "type": "uint256"
                }
            ],
            "name": "groups",
            "outputs": [
                {
                    "internalType": "uint256",
                    "name": "",
                    "type": "uint256"
                }
            ],
            "stateMutability": "view",
            "type": "function"
        },
        {
            "inputs": [],
            "name": "owner",
            "outputs": [
                {
                    "internalType": "address",
                    "name": "",
                    "type": "address"
                }
            ],
            "stateMutability": "view",
            "type": "function"
        },
        {
            "inputs": [],
            "name": "renounceOwnership",
            "outputs": [],
            "stateMutability": "nonpayable",
            "type": "function"
        },
        {
            "inputs": [
                {
                    "internalType": "address",
                    "name": "newOwner",
                    "type": "address"
                }
            ],
            "name": "transferOwnership",
            "outputs": [],
            "stateMutability": "nonpayable",
            "type": "function"
        },
        {
            "inputs": [
                {
                    "internalType": "uint256",
                    "name": "groupId",
                    "type": "uint256"
                },
                {
                    "internalType": "uint256",
                    "name": "durationSeconds",
                    "type": "uint256"
                }
            ],
            "name": "updateFingerprintDuration",
            "outputs": [],
            "stateMutability": "nonpayable",
            "type": "function"
        },
        {
            "inputs": [
                {
                    "components": [
                        {
                            "internalType": "uint256",
                            "name": "id",
                            "type": "uint256"
                        },
                        {
                            "internalType": "uint256",
                            "name": "fingerprint",
                            "type": "uint256"
                        }
                    ],
                    "internalType": "struct IBandada.Group[]",
                    "name": "_groups",
                    "type": "tuple[]"
                }
            ],
            "name": "updateGroups",
            "outputs": [],
            "stateMutability": "nonpayable",
            "type": "function"
        }
    ],
    "bytecode": "0x608060405234801561001057600080fd5b5061002d61002261003260201b60201c565b61003a60201b60201c565b6100fe565b600033905090565b60008060009054906101000a900473ffffffffffffffffffffffffffffffffffffffff169050816000806101000a81548173ffffffffffffffffffffffffffffffffffffffff021916908373ffffffffffffffffffffffffffffffffffffffff1602179055508173ffffffffffffffffffffffffffffffffffffffff168173ffffffffffffffffffffffffffffffffffffffff167f8be0079c531659141344cd1fd0a4f28419497f9722a3daafe3b4186f6b6457e060405160405180910390a35050565b6109fc8061010d6000396000f3fe608060405234801561001057600080fd5b50600436106100935760003560e01c80638da5cb5b116100665780638da5cb5b1461011e57806396324bd41461013c5780639f42f5fc1461016c578063eb433f0214610188578063f2fde38b146101b857610093565b8063125863cb1461009857806329fab622146100b4578063584326f0146100e4578063715018a614610114575b600080fd5b6100b260048036038101906100ad919061074f565b6101d4565b005b6100ce60048036038101906100c99190610794565b6103ff565b6040516100db91906108b8565b60405180910390f35b6100fe60048036038101906100f991906107bd565b610417565b60405161010b91906108b8565b60405180910390f35b61011c61043c565b005b610126610450565b604051610133919061085d565b60405180910390f35b61015660048036038101906101519190610794565b610479565b60405161016391906108b8565b60405180910390f35b610186600480360381019061018191906107bd565b610491565b005b6101a2600480360381019061019d91906107bd565b6104b5565b6040516101af91906108b8565b60405180910390f35b6101d260048036038101906101cd9190610726565b6104e4565b005b6101dc610568565b60005b828290508110156103fa57828282818110610223577f4e487b7100000000000000000000000000000000000000000000000000000000600052603260045260246000fd5b905060400201602001356001600085858581811061026a577f4e487b7100000000000000000000000000000000000000000000000000000000600052603260045260246000fd5b9050604002016000013581526020019081526020016000208190555042600260008585858181106102c4577f4e487b7100000000000000000000000000000000000000000000000000000000600052603260045260246000fd5b9050604002016000013581526020019081526020016000206000858585818110610317577f4e487b7100000000000000000000000000000000000000000000000000000000600052603260045260246000fd5b9050604002016020013581526020019081526020016000208190555082828281811061036c577f4e487b7100000000000000000000000000000000000000000000000000000000600052603260045260246000fd5b905060400201600001357f65659fbf3bab178ce96dcb4ea95ba3900cae36f9426e9920b7940995f62b06bf8484848181106103d0577f4e487b7100000000000000000000000000000000000000000000000000000000600052603260045260246000fd5b905060400201602001356040516103e791906108b8565b60405180910390a28060010190506101df565b505050565b60036020528060005260406000206000915090505481565b6002602052816000526040600020602052806000526040600020600091509150505481565b610444610568565b61044e60006105e6565b565b60008060009054906101000a900473ffffffffffffffffffffffffffffffffffffffff16905090565b60016020528060005260406000206000915090505481565b610499610568565b8060036000848152602001908152602001600020819055505050565b600060026000848152602001908152602001600020600083815260200190815260200160002054905092915050565b6104ec610568565b600073ffffffffffffffffffffffffffffffffffffffff168173ffffffffffffffffffffffffffffffffffffffff16141561055c576040517f08c379a000000000000000000000000000000000000000000000000000000000815260040161055390610878565b60405180910390fd5b610565816105e6565b50565b6105706106aa565b73ffffffffffffffffffffffffffffffffffffffff1661058e610450565b73ffffffffffffffffffffffffffffffffffffffff16146105e4576040517f08c379a00000000000000000000000000000000000000000000000000000000081526004016105db90610898565b60405180910390fd5b565b60008060009054906101000a900473ffffffffffffffffffffffffffffffffffffffff169050816000806101000a81548173ffffffffffffffffffffffffffffffffffffffff021916908373ffffffffffffffffffffffffffffffffffffffff1602179055508173ffffffffffffffffffffffffffffffffffffffff168173ffffffffffffffffffffffffffffffffffffffff167f8be0079c531659141344cd1fd0a4f28419497f9722a3daafe3b4186f6b6457e060405160405180910390a35050565b600033905090565b6000813590506106c181610998565b92915050565b60008083601f8401126106d957600080fd5b8235905067ffffffffffffffff8111156106f257600080fd5b60208301915083604082028301111561070a57600080fd5b9250929050565b600081359050610720816109af565b92915050565b60006020828403121561073857600080fd5b6000610746848285016106b2565b91505092915050565b6000806020838503121561076257600080fd5b600083013567ffffffffffffffff81111561077c57600080fd5b610788858286016106c7565b92509250509250929050565b6000602082840312156107a657600080fd5b60006107b484828501610711565b91505092915050565b600080604083850312156107d057600080fd5b60006107de85828601610711565b92505060206107ef85828601610711565b9150509250929050565b610802816108e4565b82525050565b60006108156026836108d3565b915061082082610920565b604082019050919050565b60006108386020836108d3565b91506108438261096f565b602082019050919050565b61085781610916565b82525050565b600060208201905061087260008301846107f9565b92915050565b6000602082019050818103600083015261089181610808565b9050919050565b600060208201905081810360008301526108b18161082b565b9050919050565b60006020820190506108cd600083018461084e565b92915050565b600082825260208201905092915050565b60006108ef826108f6565b9050919050565b600073ffffffffffffffffffffffffffffffffffffffff82169050919050565b6000819050919050565b7f4f776e61626c653a206e6577206f776e657220697320746865207a65726f206160008201527f6464726573730000000000000000000000000000000000000000000000000000602082015250565b7f4f776e61626c653a2063616c6c6572206973206e6f7420746865206f776e6572600082015250565b6109a1816108e4565b81146109ac57600080fd5b50565b6109b881610916565b81146109c357600080fd5b5056fea2646970667358221220fa05bfc6187fe86bdf00d1ee161d765b5010ba023c61916368e18eb193c0d65864736f6c63430008040033",
    "linkReferences": {},
    "deployedLinkReferences": {}
}