{
    "_format": "hh-sol-artifact-1",
    "contractName": "Semaphore",
    "sourceName": "contracts/Semaphore.sol",
    "abi": [
        {
            "inputs": [
                {
                    "components": [
                        {
                            "internalType": "address",
                            "name": "contractAddress",
                            "type": "address"
                        },
                        {
                            "internalType": "uint256",
                            "name": "merkleTreeDepth",
                            "type": "uint256"
                        }
                    ],
                    "internalType": "struct ISemaphore.Verifier[]",
                    "name": "_verifiers",
                    "type": "tuple[]"
                }
            ],
            "stateMutability": "nonpayable",
            "type": "constructor"
        },
        {
            "inputs": [],
            "name": "Semaphore__CallerIsNotTheGroupAdmin",
            "type": "error"
        },
        {
            "inputs": [],
            "name": "Semaphore__GroupAlreadyExists",
            "type": "error"
        },
        {
            "inputs": [],
            "name": "Semaphore__GroupDoesNotExist",
            "type": "error"
        },
        {
            "inputs": [],
            "name": "Semaphore__GroupIdIsNotLessThanSnarkScalarField",
            "type": "error"
        },
        {
            "inputs": [],
            "name": "Semaphore__MerkleTreeDepthIsNotSupported",
            "type": "error"
        },
        {
            "inputs": [],
            "name": "Semaphore__MerkleTreeRootIsExpired",
            "type": "error"
        },
        {
            "inputs": [],
            "name": "Semaphore__MerkleTreeRootIsNotPartOfTheGroup",
            "type": "error"
        },
        {
            "inputs": [],
            "name": "Semaphore__YouAreUsingTheSameNillifierTwice",
            "type": "error"
        },
        {
            "anonymous": false,
            "inputs": [
                {
                    "indexed": true,
                    "internalType": "uint256",
                    "name": "groupId",
                    "type": "uint256"
                },
                {
                    "indexed": true,
                    "internalType": "address",
                    "name": "oldAdmin",
                    "type": "address"
                },
                {
                    "indexed": true,
                    "internalType": "address",
                    "name": "newAdmin",
                    "type": "address"
                }
            ],
            "name": "GroupAdminUpdated",
            "type": "event"
        },
        {
            "anonymous": false,
            "inputs": [
                {
                    "indexed": true,
                    "internalType": "uint256",
                    "name": "groupId",
                    "type": "uint256"
                },
                {
                    "indexed": false,
                    "internalType": "uint256",
                    "name": "merkleTreeDepth",
                    "type": "uint256"
                },
                {
                    "indexed": false,
                    "internalType": "uint256",
                    "name": "zeroValue",
                    "type": "uint256"
                }
            ],
            "name": "GroupCreated",
            "type": "event"
        },
        {
            "anonymous": false,
            "inputs": [
                {
                    "indexed": true,
                    "internalType": "uint256",
                    "name": "groupId",
                    "type": "uint256"
                },
                {
                    "indexed": false,
                    "internalType": "uint256",
                    "name": "index",
                    "type": "uint256"
                },
                {
                    "indexed": false,
                    "internalType": "uint256",
                    "name": "identityCommitment",
                    "type": "uint256"
                },
                {
                    "indexed": false,
                    "internalType": "uint256",
                    "name": "merkleTreeRoot",
                    "type": "uint256"
                }
            ],
            "name": "MemberAdded",
            "type": "event"
        },
        {
            "anonymous": false,
            "inputs": [
                {
                    "indexed": true,
                    "internalType": "uint256",
                    "name": "groupId",
                    "type": "uint256"
                },
                {
                    "indexed": false,
                    "internalType": "uint256",
                    "name": "index",
                    "type": "uint256"
                },
                {
                    "indexed": false,
                    "internalType": "uint256",
                    "name": "identityCommitment",
                    "type": "uint256"
                },
                {
                    "indexed": false,
                    "internalType": "uint256",
                    "name": "merkleTreeRoot",
                    "type": "uint256"
                }
            ],
            "name": "MemberRemoved",
            "type": "event"
        },
        {
            "anonymous": false,
            "inputs": [
                {
                    "indexed": true,
                    "internalType": "uint256",
                    "name": "groupId",
                    "type": "uint256"
                },
                {
                    "indexed": false,
                    "internalType": "uint256",
                    "name": "index",
                    "type": "uint256"
                },
                {
                    "indexed": false,
                    "internalType": "uint256",
                    "name": "identityCommitment",
                    "type": "uint256"
                },
                {
                    "indexed": false,
                    "internalType": "uint256",
                    "name": "newIdentityCommitment",
                    "type": "uint256"
                },
                {
                    "indexed": false,
                    "internalType": "uint256",
                    "name": "merkleTreeRoot",
                    "type": "uint256"
                }
            ],
            "name": "MemberUpdated",
            "type": "event"
        },
        {
            "anonymous": false,
            "inputs": [
                {
                    "indexed": false,
                    "internalType": "uint256",
                    "name": "nullifierHash",
                    "type": "uint256"
                }
            ],
            "name": "NullifierHashAdded",
            "type": "event"
        },
        {
            "anonymous": false,
            "inputs": [
                {
                    "indexed": true,
                    "internalType": "uint256",
                    "name": "groupId",
                    "type": "uint256"
                },
                {
                    "indexed": false,
                    "internalType": "uint256",
                    "name": "merkleTreeRoot",
                    "type": "uint256"
                },
                {
                    "indexed": false,
                    "internalType": "uint256",
                    "name": "externalNullifier",
                    "type": "uint256"
                },
                {
                    "indexed": false,
                    "internalType": "uint256",
                    "name": "nullifierHash",
                    "type": "uint256"
                },
                {
                    "indexed": false,
                    "internalType": "bytes32",
                    "name": "signal",
                    "type": "bytes32"
                }
            ],
            "name": "ProofVerified",
            "type": "event"
        },
        {
            "inputs": [
                {
                    "internalType": "uint256",
                    "name": "groupId",
                    "type": "uint256"
                },
                {
                    "internalType": "uint256",
                    "name": "identityCommitment",
                    "type": "uint256"
                }
            ],
            "name": "addMember",
            "outputs": [],
            "stateMutability": "nonpayable",
            "type": "function"
        },
        {
            "inputs": [
                {
                    "internalType": "uint256",
                    "name": "groupId",
                    "type": "uint256"
                },
                {
                    "internalType": "uint256[]",
                    "name": "identityCommitments",
                    "type": "uint256[]"
                }
            ],
            "name": "addMembers",
            "outputs": [],
            "stateMutability": "nonpayable",
            "type": "function"
        },
        {
            "inputs": [
                {
                    "internalType": "uint256",
                    "name": "groupId",
                    "type": "uint256"
                },
                {
                    "internalType": "uint256",
                    "name": "merkleTreeDepth",
                    "type": "uint256"
                },
                {
                    "internalType": "uint256",
                    "name": "zeroValue",
                    "type": "uint256"
                },
                {
                    "internalType": "address",
                    "name": "admin",
                    "type": "address"
                }
            ],
            "name": "createGroup",
            "outputs": [],
            "stateMutability": "nonpayable",
            "type": "function"
        },
        {
            "inputs": [
                {
                    "internalType": "uint256",
                    "name": "groupId",
                    "type": "uint256"
                },
                {
                    "internalType": "uint256",
                    "name": "merkleTreeDepth",
                    "type": "uint256"
                },
                {
                    "internalType": "uint256",
                    "name": "zeroValue",
                    "type": "uint256"
                },
                {
                    "internalType": "address",
                    "name": "admin",
                    "type": "address"
                },
                {
                    "internalType": "uint256",
                    "name": "merkleTreeRootDuration",
                    "type": "uint256"
                }
            ],
            "name": "createGroup",
            "outputs": [],
            "stateMutability": "nonpayable",
            "type": "function"
        },
        {
            "inputs": [
                {
                    "internalType": "uint256",
                    "name": "groupId",
                    "type": "uint256"
                }
            ],
            "name": "getMerkleTreeDepth",
            "outputs": [
                {
                    "internalType": "uint256",
                    "name": "",
                    "type": "uint256"
                }
            ],
            "stateMutability": "view",
            "type": "function"
        },
        {
            "inputs": [
                {
                    "internalType": "uint256",
                    "name": "groupId",
                    "type": "uint256"
                }
            ],
            "name": "getMerkleTreeRoot",
            "outputs": [
                {
                    "internalType": "uint256",
                    "name": "",
                    "type": "uint256"
                }
            ],
            "stateMutability": "view",
            "type": "function"
        },
        {
            "inputs": [
                {
                    "internalType": "uint256",
                    "name": "groupId",
                    "type": "uint256"
                }
            ],
            "name": "getNumberOfMerkleTreeLeaves",
            "outputs": [
                {
                    "internalType": "uint256",
                    "name": "",
                    "type": "uint256"
                }
            ],
            "stateMutability": "view",
            "type": "function"
        },
        {
            "inputs": [
                {
                    "internalType": "uint256",
                    "name": "",
                    "type": "uint256"
                }
            ],
            "name": "groups",
            "outputs": [
                {
                    "internalType": "address",
                    "name": "admin",
                    "type": "address"
                },
                {
                    "internalType": "uint256",
                    "name": "merkleRootDuration",
                    "type": "uint256"
                }
            ],
            "stateMutability": "view",
            "type": "function"
        },
        {
            "inputs": [
                {
                    "internalType": "uint256",
                    "name": "groupId",
                    "type": "uint256"
                },
                {
                    "internalType": "uint256",
                    "name": "identityCommitment",
                    "type": "uint256"
                },
                {
                    "internalType": "uint256[]",
                    "name": "proofSiblings",
                    "type": "uint256[]"
                },
                {
                    "internalType": "uint8[]",
                    "name": "proofPathIndices",
                    "type": "uint8[]"
                }
            ],
            "name": "removeMember",
            "outputs": [],
            "stateMutability": "nonpayable",
            "type": "function"
        },
        {
            "inputs": [
                {
                    "internalType": "uint256",
                    "name": "groupId",
                    "type": "uint256"
                },
                {
                    "internalType": "address",
                    "name": "newAdmin",
                    "type": "address"
                }
            ],
            "name": "updateGroupAdmin",
            "outputs": [],
            "stateMutability": "nonpayable",
            "type": "function"
        },
        {
            "inputs": [
                {
                    "internalType": "uint256",
                    "name": "groupId",
                    "type": "uint256"
                },
                {
                    "internalType": "uint256",
                    "name": "identityCommitment",
                    "type": "uint256"
                },
                {
                    "internalType": "uint256",
                    "name": "newIdentityCommitment",
                    "type": "uint256"
                },
                {
                    "internalType": "uint256[]",
                    "name": "proofSiblings",
                    "type": "uint256[]"
                },
                {
                    "internalType": "uint8[]",
                    "name": "proofPathIndices",
                    "type": "uint8[]"
                }
            ],
            "name": "updateMember",
            "outputs": [],
            "stateMutability": "nonpayable",
            "type": "function"
        },
        {
            "inputs": [
                {
                    "internalType": "uint256",
                    "name": "",
                    "type": "uint256"
                }
            ],
            "name": "verifiers",
            "outputs": [
                {
                    "internalType": "contract IVerifier",
                    "name": "",
                    "type": "address"
                }
            ],
            "stateMutability": "view",
            "type": "function"
        },
        {
            "inputs": [
                {
                    "internalType": "uint256",
                    "name": "groupId",
                    "type": "uint256"
                },
                {
                    "internalType": "uint256",
                    "name": "merkleTreeRoot",
                    "type": "uint256"
                },
                {
                    "internalType": "bytes32",
                    "name": "signal",
                    "type": "bytes32"
                },
                {
                    "internalType": "uint256",
                    "name": "nullifierHash",
                    "type": "uint256"
                },
                {
                    "internalType": "uint256",
                    "name": "externalNullifier",
                    "type": "uint256"
                },
                {
                    "internalType": "uint256[8]",
                    "name": "proof",
                    "type": "uint256[8]"
                }
            ],
            "name": "verifyProof",
            "outputs": [],
            "stateMutability": "nonpayable",
            "type": "function"
        }
    ],
    "bytecode": "0x60806040523480156200001157600080fd5b50604051620028d5380380620028d5833981810160405281019062000037919062000260565b60005b81518160ff1610156200013557818160ff168151811062000084577f4e487b7100000000000000000000000000000000000000000000000000000000600052603260045260246000fd5b60200260200101516000015160016000848460ff1681518110620000d1577f4e487b7100000000000000000000000000000000000000000000000000000000600052603260045260246000fd5b602002602001015160200151815260200190815260200160002060006101000a81548173ffffffffffffffffffffffffffffffffffffffff021916908373ffffffffffffffffffffffffffffffffffffffff1602179055508060010190506200003a565b5050620003e5565b6000620001546200014e84620002ce565b620002a5565b905080838252602082019050828560408602820111156200017457600080fd5b60005b85811015620001a857816200018d8882620001f6565b84526020840193506040830192505060018101905062000177565b5050509392505050565b600081519050620001c381620003b1565b92915050565b600082601f830112620001db57600080fd5b8151620001ed8482602086016200013d565b91505092915050565b6000604082840312156200020957600080fd5b620002156040620002a5565b905060006200022784828501620001b2565b60008301525060206200023d8482850162000249565b60208301525092915050565b6000815190506200025a81620003cb565b92915050565b6000602082840312156200027357600080fd5b600082015167ffffffffffffffff8111156200028e57600080fd5b6200029c84828501620001c9565b91505092915050565b6000620002b1620002c4565b9050620002bf82826200033b565b919050565b6000604051905090565b600067ffffffffffffffff821115620002ec57620002eb62000371565b5b602082029050602081019050919050565b60006200030a8262000311565b9050919050565b600073ffffffffffffffffffffffffffffffffffffffff82169050919050565b6000819050919050565b6200034682620003a0565b810181811067ffffffffffffffff8211171562000368576200036762000371565b5b80604052505050565b7f4e487b7100000000000000000000000000000000000000000000000000000000600052604160045260246000fd5b6000601f19601f8301169050919050565b620003bc81620002fd565b8114620003c857600080fd5b50565b620003d68162000331565b8114620003e257600080fd5b50565b6124e080620003f56000396000f3fe608060405234801561001057600080fd5b50600436106100cf5760003560e01c80636389e1071161008c578063aa524e2c11610066578063aa524e2c1461020d578063ac1eff6814610229578063dabc4d5114610259578063ec45622a14610289576100cf565b80636389e107146101905780638b69310a146101c057806396324bd4146101dc576100cf565b806304245371146100d4578063059f1bb5146100f05780631783efc31461010c57806343989f8514610128578063568ee82614610144578063638480be14610160575b600080fd5b6100ee60048036038101906100e99190611882565b6102a5565b005b61010a60048036038101906101059190611a3b565b6103f1565b005b610126600480360381019061012191906118da565b61056c565b005b610142600480360381019061013d9190611916565b610658565b005b61015e60048036038101906101599190611846565b610712565b005b61017a6004803603810190610175919061181d565b610871565b6040516101879190612090565b60405180910390f35b6101aa60048036038101906101a5919061181d565b610890565b6040516101b79190612090565b60405180910390f35b6101da60048036038101906101d591906119b1565b6108af565b005b6101f660048036038101906101f1919061181d565b610b10565b604051610204929190611ee9565b60405180910390f35b61022760048036038101906102229190611a9e565b610b54565b005b610243600480360381019061023e919061181d565b610cce565b6040516102509190611f59565b60405180910390f35b610273600480360381019061026e919061181d565b610d01565b6040516102809190612090565b60405180910390f35b6102a3600480360381019061029e9190611b15565b610d20565b005b826102ae610ddc565b73ffffffffffffffffffffffffffffffffffffffff166002600083815260200190815260200160002060000160009054906101000a900473ffffffffffffffffffffffffffffffffffffffff1673ffffffffffffffffffffffffffffffffffffffff1614610348576040517fbb9bf27800000000000000000000000000000000000000000000000000000000815260040160405180910390fd5b60005b838390508160ff1610156103b0576103a58585858460ff16818110610399577f4e487b7100000000000000000000000000000000000000000000000000000000600052603260045260246000fd5b90506020020135610de4565b80600101905061034b565b5060006103bc85610d01565b905042600260008781526020019081526020016000206002016000838152602001908152602001600020819055505050505050565b82600073ffffffffffffffffffffffffffffffffffffffff166001600083815260200190815260200160002060009054906101000a900473ffffffffffffffffffffffffffffffffffffffff1673ffffffffffffffffffffffffffffffffffffffff16141561048c576040517fecf64f1200000000000000000000000000000000000000000000000000000000815260040160405180910390fd5b610497858585610f0b565b816002600087815260200190815260200160002060000160006101000a81548173ffffffffffffffffffffffffffffffffffffffff021916908373ffffffffffffffffffffffffffffffffffffffff160217905550610e1060026000878152602001908152602001600020600101819055508173ffffffffffffffffffffffffffffffffffffffff16600073ffffffffffffffffffffffffffffffffffffffff16867f0ba83579a0e79193ef649b9f5a8759d35af086ba62a3e207b52e4a8ae30d49e360405160405180910390a45050505050565b81610575610ddc565b73ffffffffffffffffffffffffffffffffffffffff166002600083815260200190815260200160002060000160009054906101000a900473ffffffffffffffffffffffffffffffffffffffff1673ffffffffffffffffffffffffffffffffffffffff161461060f576040517fbb9bf27800000000000000000000000000000000000000000000000000000000815260040160405180910390fd5b6106198383610de4565b600061062484610d01565b9050426002600086815260200190815260200160002060020160008381526020019081526020016000208190555050505050565b85610661610ddc565b73ffffffffffffffffffffffffffffffffffffffff166002600083815260200190815260200160002060000160009054906101000a900473ffffffffffffffffffffffffffffffffffffffff1673ffffffffffffffffffffffffffffffffffffffff16146106fb576040517fbb9bf27800000000000000000000000000000000000000000000000000000000815260040160405180910390fd5b610709878787878787611063565b50505050505050565b8161071b610ddc565b73ffffffffffffffffffffffffffffffffffffffff166002600083815260200190815260200160002060000160009054906101000a900473ffffffffffffffffffffffffffffffffffffffff1673ffffffffffffffffffffffffffffffffffffffff16146107b5576040517fbb9bf27800000000000000000000000000000000000000000000000000000000815260040160405180910390fd5b816002600085815260200190815260200160002060000160006101000a81548173ffffffffffffffffffffffffffffffffffffffff021916908373ffffffffffffffffffffffffffffffffffffffff1602179055508173ffffffffffffffffffffffffffffffffffffffff16610829610ddc565b73ffffffffffffffffffffffffffffffffffffffff16847f0ba83579a0e79193ef649b9f5a8759d35af086ba62a3e207b52e4a8ae30d49e360405160405180910390a4505050565b6000806000838152602001908152602001600020600201549050919050565b6000806000838152602001908152602001600020600001549050919050565b60006108ba87610d01565b905060008114156108f7576040517f029f057900000000000000000000000000000000000000000000000000000000815260040160405180910390fd5b8086146109c85760006002600089815260200190815260200160002060020160008881526020019081526020016000205490506000600260008a81526020019081526020016000206001015490506000821415610980576040517f4d32958600000000000000000000000000000000000000000000000000000000815260040160405180910390fd5b808261098c9190612277565b4211156109c5576040517f9581a99000000000000000000000000000000000000000000000000000000000815260040160405180910390fd5b50505b60026000888152602001908152602001600020600301600085815260200190815260200160002060009054906101000a900460ff1615610a34576040517f948d067400000000000000000000000000000000000000000000000000000000815260040160405180910390fd5b6000610a3f88610890565b905060006001600083815260200190815260200160002060009054906101000a900473ffffffffffffffffffffffffffffffffffffffff169050610a8787898888888661118b565b6001600260008b8152602001908152602001600020600301600088815260200190815260200160002060006101000a81548160ff021916908315150217905550887f708a95ee10fd07b9e300c13f6ad7eb0bf8f6a7b3d54c727320f9e7dfdb1296fd8988888b604051610afd949392919061210b565b60405180910390a2505050505050505050565b60026020528060005260406000206000915090508060000160009054906101000a900473ffffffffffffffffffffffffffffffffffffffff16908060010154905082565b83600073ffffffffffffffffffffffffffffffffffffffff166001600083815260200190815260200160002060009054906101000a900473ffffffffffffffffffffffffffffffffffffffff1673ffffffffffffffffffffffffffffffffffffffff161415610bef576040517fecf64f1200000000000000000000000000000000000000000000000000000000815260040160405180910390fd5b610bfa868686610f0b565b826002600088815260200190815260200160002060000160006101000a81548173ffffffffffffffffffffffffffffffffffffffff021916908373ffffffffffffffffffffffffffffffffffffffff1602179055508160026000888152602001908152602001600020600101819055508273ffffffffffffffffffffffffffffffffffffffff16600073ffffffffffffffffffffffffffffffffffffffff16877f0ba83579a0e79193ef649b9f5a8759d35af086ba62a3e207b52e4a8ae30d49e360405160405180910390a4505050505050565b60016020528060005260406000206000915054906101000a900473ffffffffffffffffffffffffffffffffffffffff1681565b6000806000838152602001908152602001600020600101549050919050565b86610d29610ddc565b73ffffffffffffffffffffffffffffffffffffffff166002600083815260200190815260200160002060000160009054906101000a900473ffffffffffffffffffffffffffffffffffffffff1673ffffffffffffffffffffffffffffffffffffffff1614610dc3576040517fbb9bf27800000000000000000000000000000000000000000000000000000000815260040160405180910390fd5b610dd288888888888888611484565b5050505050505050565b600033905090565b6000610def83610890565b1415610e27576040517f029f057900000000000000000000000000000000000000000000000000000000815260040160405180910390fd5b60008083815260200190815260200160002073__$0c6eb7207c37accf1552a1c47686411ac0$__63168703fa9091836040518363ffffffff1660e01b8152600401610e73929190611f74565b60006040518083038186803b158015610e8b57600080fd5b505af4158015610e9f573d6000803e3d6000fd5b505050506000610eae83610d01565b905060006001610ebd85610871565b610ec79190612327565b9050837f19239b3f93cd10558aaf11423af70c77763bf54f52bcc75bfa74d4d13548cde9828585604051610efd939291906120d4565b60405180910390a250505050565b7f30644e72e131a029b85045b68181585d2833e84879b9709143e1f593f00000018310610f64576040517fa61c78ca00000000000000000000000000000000000000000000000000000000815260040160405180910390fd5b6000610f6f84610890565b14610fa6576040517f8121725b00000000000000000000000000000000000000000000000000000000815260040160405180910390fd5b60008084815260200190815260200160002073__$0c6eb7207c37accf1552a1c47686411ac0$__631095fbb4909184846040518463ffffffff1660e01b8152600401610ff493929190611ff4565b60006040518083038186803b15801561100c57600080fd5b505af4158015611020573d6000803e3d6000fd5b50505050827f0d000126c26c1bbe400fd2332187f75d58b69306f9ec47b408686189d3a0083383836040516110569291906120ab565b60405180910390a2505050565b600061106e87610d01565b14156110a6576040517f029f057900000000000000000000000000000000000000000000000000000000815260040160405180910390fd5b60008087815260200190815260200160002073__$0c6eb7207c37accf1552a1c47686411ac0$__630629596f909187878787876040518763ffffffff1660e01b81526004016110fa96959493929190611f9d565b60006040518083038186803b15801561111257600080fd5b505af4158015611126573d6000803e3d6000fd5b50505050600061113587610d01565b9050600061114384846115b1565b9050877f3108849c053c77b8073a11256dffb5ffd5b55e93e105a355e1c9061db890d871828985604051611179939291906120d4565b60405180910390a25050505050505050565b6000611196876116e0565b90508173ffffffffffffffffffffffffffffffffffffffff16635fe8c13b6040518060400160405280866000600881106111f9577f4e487b7100000000000000000000000000000000000000000000000000000000600052603260045260246000fd5b602002013581526020018660016008811061123d577f4e487b7100000000000000000000000000000000000000000000000000000000600052603260045260246000fd5b60200201358152506040518060400160405280604051806040016040528089600260088110611295577f4e487b7100000000000000000000000000000000000000000000000000000000600052603260045260246000fd5b60200201358152602001896003600881106112d9577f4e487b7100000000000000000000000000000000000000000000000000000000600052603260045260246000fd5b6020020135815250815260200160405180604001604052808960046008811061132b577f4e487b7100000000000000000000000000000000000000000000000000000000600052603260045260246000fd5b602002013581526020018960056008811061136f577f4e487b7100000000000000000000000000000000000000000000000000000000600052603260045260246000fd5b60200201358152508152506040518060400160405280886006600881106113bf577f4e487b7100000000000000000000000000000000000000000000000000000000600052603260045260246000fd5b6020020135815260200188600760088110611403577f4e487b7100000000000000000000000000000000000000000000000000000000600052603260045260246000fd5b602002013581525060405180608001604052808c81526020018b81526020018781526020018a8152506040518563ffffffff1660e01b815260040161144b9493929190611f12565b60006040518083038186803b15801561146357600080fd5b505afa158015611477573d6000803e3d6000fd5b5050505050505050505050565b600061148f88610d01565b14156114c7576040517f029f057900000000000000000000000000000000000000000000000000000000815260040160405180910390fd5b60008088815260200190815260200160002073__$0c6eb7207c37accf1552a1c47686411ac0$__63a547882790918888888888886040518863ffffffff1660e01b815260040161151d979695949392919061202b565b60006040518083038186803b15801561153557600080fd5b505af4158015611549573d6000803e3d6000fd5b50505050600061155888610d01565b9050600061156684846115b1565b9050887fea3588e4a2a0c93d6a0e69dfeaf7496f43ccccf02ad9ce0a5b7627cbca4b61b1828a8a8660405161159e9493929190612150565b60405180910390a2505050505050505050565b6000806000905060008484905090505b60008160ff1611156116d557600082118061163c5750600085856001846115e8919061235b565b60ff16818110611621577f4e487b7100000000000000000000000000000000000000000000000000000000600052603260045260246000fd5b90506020020160208101906116369190611bc5565b60ff1614155b156116c95760028261164e91906122cd565b915060018585600184611661919061235b565b60ff1681811061169a577f4e487b7100000000000000000000000000000000000000000000000000000000600052603260045260246000fd5b90506020020160208101906116af9190611bc5565b60ff1614156116c8576001826116c59190612277565b91505b5b806001900390506115c1565b508091505092915050565b60006008826040516020016116f59190611ece565b6040516020818303038152906040528051906020012060001c901c9050919050565b6000813590506117268161244e565b92915050565b60008190508260206008028201111561174457600080fd5b92915050565b60008083601f84011261175c57600080fd5b8235905067ffffffffffffffff81111561177557600080fd5b60208301915083602082028301111561178d57600080fd5b9250929050565b60008083601f8401126117a657600080fd5b8235905067ffffffffffffffff8111156117bf57600080fd5b6020830191508360208202830111156117d757600080fd5b9250929050565b6000813590506117ed81612465565b92915050565b6000813590506118028161247c565b92915050565b60008135905061181781612493565b92915050565b60006020828403121561182f57600080fd5b600061183d848285016117f3565b91505092915050565b6000806040838503121561185957600080fd5b6000611867858286016117f3565b925050602061187885828601611717565b9150509250929050565b60008060006040848603121561189757600080fd5b60006118a5868287016117f3565b935050602084013567ffffffffffffffff8111156118c257600080fd5b6118ce8682870161174a565b92509250509250925092565b600080604083850312156118ed57600080fd5b60006118fb858286016117f3565b925050602061190c858286016117f3565b9150509250929050565b6000806000806000806080878903121561192f57600080fd5b600061193d89828a016117f3565b965050602061194e89828a016117f3565b955050604087013567ffffffffffffffff81111561196b57600080fd5b61197789828a0161174a565b9450945050606087013567ffffffffffffffff81111561199657600080fd5b6119a289828a01611794565b92509250509295509295509295565b6000806000806000806101a087890312156119cb57600080fd5b60006119d989828a016117f3565b96505060206119ea89828a016117f3565b95505060406119fb89828a016117de565b9450506060611a0c89828a016117f3565b9350506080611a1d89828a016117f3565b92505060a0611a2e89828a0161172c565b9150509295509295509295565b60008060008060808587031215611a5157600080fd5b6000611a5f878288016117f3565b9450506020611a70878288016117f3565b9350506040611a81878288016117f3565b9250506060611a9287828801611717565b91505092959194509250565b600080600080600060a08688031215611ab657600080fd5b6000611ac4888289016117f3565b9550506020611ad5888289016117f3565b9450506040611ae6888289016117f3565b9350506060611af788828901611717565b9250506080611b08888289016117f3565b9150509295509295909350565b600080600080600080600060a0888a031215611b3057600080fd5b6000611b3e8a828b016117f3565b9750506020611b4f8a828b016117f3565b9650506040611b608a828b016117f3565b955050606088013567ffffffffffffffff811115611b7d57600080fd5b611b898a828b0161174a565b9450945050608088013567ffffffffffffffff811115611ba857600080fd5b611bb48a828b01611794565b925092505092959891949750929550565b600060208284031215611bd757600080fd5b6000611be584828501611808565b91505092915050565b6000611bfa8383611c9c565b60408301905092915050565b6000611c128383611e92565b60208301905092915050565b6000611c2a8383611ebf565b60208301905092915050565b611c3f8161238f565b82525050565b611c4e816121bd565b611c588184612212565b9250611c6382612195565b8060005b83811015611c94578151611c7b8782611bee565b9650611c86836121de565b925050600181019050611c67565b505050505050565b611ca5816121c8565b611caf818461221d565b9250611cba8261219f565b8060005b83811015611ceb578151611cd28782611c06565b9650611cdd836121eb565b925050600181019050611cbe565b505050505050565b611cfc816121c8565b611d068184612228565b9250611d118261219f565b8060005b83811015611d42578151611d298782611c06565b9650611d34836121eb565b925050600181019050611d15565b505050505050565b611d53816121d3565b611d5d8184612233565b9250611d68826121a9565b8060005b83811015611d99578151611d808782611c06565b9650611d8b836121f8565b925050600181019050611d6c565b505050505050565b6000611dad838561223e565b93507f07ffffffffffffffffffffffffffffffffffffffffffffffffffffffffffffff831115611ddc57600080fd5b602083029250611ded838584612406565b82840190509392505050565b6000611e05838561224f565b9350611e10826121b3565b8060005b85811015611e4957611e268284612260565b611e308882611c1e565b9750611e3b83612205565b925050600181019050611e14565b5085925050509392505050565b611e5f816123a1565b82525050565b611e76611e71826123a1565b612415565b82525050565b611e85816123e2565b82525050565b8082525050565b611e9b816123cb565b82525050565b611eaa816123cb565b82525050565b611eb9816123cb565b82525050565b611ec8816123d5565b82525050565b6000611eda8284611e65565b60208201915081905092915050565b6000604082019050611efe6000830185611c36565b611f0b6020830184611ea1565b9392505050565b600061018082019050611f286000830187611cf3565b611f356040830186611c45565b611f4260c0830185611cf3565b611f50610100830184611d4a565b95945050505050565b6000602082019050611f6e6000830184611e7c565b92915050565b6000604082019050611f896000830185611e8b565b611f966020830184611eb0565b9392505050565b6000608082019050611fb26000830189611e8b565b611fbf6020830188611eb0565b8181036040830152611fd2818688611da1565b90508181036060830152611fe7818486611df9565b9050979650505050505050565b60006060820190506120096000830186611e8b565b6120166020830185611eb0565b6120236040830184611eb0565b949350505050565b600060a082019050612040600083018a611e8b565b61204d6020830189611eb0565b61205a6040830188611eb0565b818103606083015261206d818688611da1565b90508181036080830152612082818486611df9565b905098975050505050505050565b60006020820190506120a56000830184611ea1565b92915050565b60006040820190506120c06000830185611ea1565b6120cd6020830184611ea1565b9392505050565b60006060820190506120e96000830186611ea1565b6120f66020830185611ea1565b6121036040830184611ea1565b949350505050565b60006080820190506121206000830187611ea1565b61212d6020830186611ea1565b61213a6040830185611ea1565b6121476060830184611e56565b95945050505050565b60006080820190506121656000830187611ea1565b6121726020830186611ea1565b61217f6040830185611ea1565b61218c6060830184611ea1565b95945050505050565b6000819050919050565b6000819050919050565b6000819050919050565b6000819050919050565b600060029050919050565b600060029050919050565b600060049050919050565b6000602082019050919050565b6000602082019050919050565b6000602082019050919050565b6000602082019050919050565b600081905092915050565b600081905092915050565b600081905092915050565b600081905092915050565b600082825260208201905092915050565b600082825260208201905092915050565b600061226f6020840184611808565b905092915050565b6000612282826123cb565b915061228d836123cb565b9250827fffffffffffffffffffffffffffffffffffffffffffffffffffffffffffffffff038211156122c2576122c161241f565b5b828201905092915050565b60006122d8826123cb565b91506122e3836123cb565b9250817fffffffffffffffffffffffffffffffffffffffffffffffffffffffffffffffff048311821515161561231c5761231b61241f565b5b828202905092915050565b6000612332826123cb565b915061233d836123cb565b9250828210156123505761234f61241f565b5b828203905092915050565b6000612366826123d5565b9150612371836123d5565b9250828210156123845761238361241f565b5b828203905092915050565b600061239a826123ab565b9050919050565b6000819050919050565b600073ffffffffffffffffffffffffffffffffffffffff82169050919050565b6000819050919050565b600060ff82169050919050565b60006123ed826123f4565b9050919050565b60006123ff826123ab565b9050919050565b82818337600083830152505050565b6000819050919050565b7f4e487b7100000000000000000000000000000000000000000000000000000000600052601160045260246000fd5b6124578161238f565b811461246257600080fd5b50565b61246e816123a1565b811461247957600080fd5b50565b612485816123cb565b811461249057600080fd5b50565b61249c816123d5565b81146124a757600080fd5b5056fea2646970667358221220c671bf31231af99232f8870d67e5830b13668efb9c5395b069a887f40281a42264736f6c63430008040033",
    "linkReferences": {
        "@zk-kit/incremental-merkle-tree.sol/IncrementalBinaryTree.sol": {
            "IncrementalBinaryTree": [
                {
                    "length": 20,
                    "start": 4656
                },
                {
                    "length": 20,
                    "start": 5039
                },
                {
                    "length": 20,
                    "start": 5295
                },
                {
                    "length": 20,
                    "start": 6352
                }
            ]
        }
    },
    "deployedLinkReferences": {
        "@zk-kit/incremental-merkle-tree.sol/IncrementalBinaryTree.sol": {
            "IncrementalBinaryTree": [
                {
                    "length": 20,
                    "start": 3643
                },
                {
                    "length": 20,
                    "start": 4026
                },
                {
                    "length": 20,
                    "start": 4282
                },
                {
                    "length": 20,
                    "start": 5339
                }
            ]
        }
    }
}