{
    "_format": "hh-sol-artifact-1",
    "contractName": "ZKGroups",
    "sourceName": "contracts/ZKGroups.sol",
    "abi": [
        {
            "inputs": [
                {
                    "internalType": "contract ISemaphoreVerifier",
                    "name": "_verifier",
                    "type": "address"
                }
            ],
            "stateMutability": "nonpayable",
            "type": "constructor"
        },
        {
            "inputs": [],
            "name": "ZKGroups__GroupDoesNotExist",
            "type": "error"
        },
        {
            "inputs": [],
            "name": "ZKGroups__MerkleTreeDepthIsNotSupported",
            "type": "error"
        },
        {
            "inputs": [],
            "name": "ZKGroups__YouAreUsingTheSameNullifierTwice",
            "type": "error"
        },
        {
            "anonymous": false,
            "inputs": [
                {
                    "indexed": true,
                    "internalType": "bytes32",
                    "name": "groupName",
                    "type": "bytes32"
                },
                {
                    "indexed": false,
                    "internalType": "uint256",
                    "name": "merkleTreeRoot",
                    "type": "uint256"
                },
                {
                    "indexed": false,
                    "internalType": "uint256",
                    "name": "merkleTreeDepth",
                    "type": "uint256"
                }
            ],
            "name": "GroupUpdated",
            "type": "event"
        },
        {
            "anonymous": false,
            "inputs": [
                {
                    "indexed": true,
                    "internalType": "address",
                    "name": "previousOwner",
                    "type": "address"
                },
                {
                    "indexed": true,
                    "internalType": "address",
                    "name": "newOwner",
                    "type": "address"
                }
            ],
            "name": "OwnershipTransferred",
            "type": "event"
        },
        {
            "anonymous": false,
            "inputs": [
                {
                    "indexed": true,
                    "internalType": "bytes32",
                    "name": "groupName",
                    "type": "bytes32"
                },
                {
                    "indexed": false,
                    "internalType": "uint256",
                    "name": "merkleTreeRoot",
                    "type": "uint256"
                },
                {
                    "indexed": false,
                    "internalType": "uint256",
                    "name": "externalNullifier",
                    "type": "uint256"
                },
                {
                    "indexed": false,
                    "internalType": "uint256",
                    "name": "nullifierHash",
                    "type": "uint256"
                },
                {
                    "indexed": false,
                    "internalType": "uint256",
                    "name": "signal",
                    "type": "uint256"
                }
            ],
            "name": "ProofVerified",
            "type": "event"
        },
        {
            "inputs": [
                {
                    "internalType": "bytes32",
                    "name": "groupName",
                    "type": "bytes32"
                }
            ],
            "name": "getMerkleTreeDepth",
            "outputs": [
                {
                    "internalType": "uint256",
                    "name": "",
                    "type": "uint256"
                }
            ],
            "stateMutability": "view",
            "type": "function"
        },
        {
            "inputs": [
                {
                    "internalType": "bytes32",
                    "name": "groupName",
                    "type": "bytes32"
                }
            ],
            "name": "getMerkleTreeRoot",
            "outputs": [
                {
                    "internalType": "uint256",
                    "name": "",
                    "type": "uint256"
                }
            ],
            "stateMutability": "view",
            "type": "function"
        },
        {
            "inputs": [
                {
                    "internalType": "bytes32",
                    "name": "",
                    "type": "bytes32"
                }
            ],
            "name": "groups",
            "outputs": [
                {
                    "internalType": "uint256",
                    "name": "merkleTreeRoot",
                    "type": "uint256"
                },
                {
                    "internalType": "uint256",
                    "name": "merkleTreeDepth",
                    "type": "uint256"
                }
            ],
            "stateMutability": "view",
            "type": "function"
        },
        {
            "inputs": [],
            "name": "owner",
            "outputs": [
                {
                    "internalType": "address",
                    "name": "",
                    "type": "address"
                }
            ],
            "stateMutability": "view",
            "type": "function"
        },
        {
            "inputs": [],
            "name": "renounceOwnership",
            "outputs": [],
            "stateMutability": "nonpayable",
            "type": "function"
        },
        {
            "inputs": [
                {
                    "internalType": "address",
                    "name": "newOwner",
                    "type": "address"
                }
            ],
            "name": "transferOwnership",
            "outputs": [],
            "stateMutability": "nonpayable",
            "type": "function"
        },
        {
            "inputs": [
                {
                    "internalType": "bytes32[]",
                    "name": "groupNames",
                    "type": "bytes32[]"
                },
                {
                    "components": [
                        {
                            "internalType": "uint256",
                            "name": "merkleTreeRoot",
                            "type": "uint256"
                        },
                        {
                            "internalType": "uint256",
                            "name": "merkleTreeDepth",
                            "type": "uint256"
                        }
                    ],
                    "internalType": "struct IZKGroups.Group[]",
                    "name": "_groups",
                    "type": "tuple[]"
                }
            ],
            "name": "updateGroups",
            "outputs": [],
            "stateMutability": "nonpayable",
            "type": "function"
        },
        {
            "inputs": [],
            "name": "verifier",
            "outputs": [
                {
                    "internalType": "contract ISemaphoreVerifier",
                    "name": "",
                    "type": "address"
                }
            ],
            "stateMutability": "view",
            "type": "function"
        },
        {
            "inputs": [
                {
                    "internalType": "bytes32",
                    "name": "groupName",
                    "type": "bytes32"
                },
                {
                    "internalType": "uint256",
                    "name": "signal",
                    "type": "uint256"
                },
                {
                    "internalType": "uint256",
                    "name": "nullifierHash",
                    "type": "uint256"
                },
                {
                    "internalType": "uint256",
                    "name": "externalNullifier",
                    "type": "uint256"
                },
                {
                    "internalType": "uint256[8]",
                    "name": "proof",
                    "type": "uint256[8]"
                }
            ],
            "name": "verifyProof",
            "outputs": [],
            "stateMutability": "nonpayable",
            "type": "function"
        }
    ],
    "bytecode": "0x60806040523480156200001157600080fd5b506040516200104038038062001040833981810160405281019062000037919062000182565b620000576200004b6200009f60201b60201c565b620000a760201b60201c565b80600160006101000a81548173ffffffffffffffffffffffffffffffffffffffff021916908373ffffffffffffffffffffffffffffffffffffffff1602179055505062000210565b600033905090565b60008060009054906101000a900473ffffffffffffffffffffffffffffffffffffffff169050816000806101000a81548173ffffffffffffffffffffffffffffffffffffffff021916908373ffffffffffffffffffffffffffffffffffffffff1602179055508173ffffffffffffffffffffffffffffffffffffffff168173ffffffffffffffffffffffffffffffffffffffff167f8be0079c531659141344cd1fd0a4f28419497f9722a3daafe3b4186f6b6457e060405160405180910390a35050565b6000815190506200017c81620001f6565b92915050565b6000602082840312156200019557600080fd5b6000620001a5848285016200016b565b91505092915050565b6000620001bb82620001d6565b9050919050565b6000620001cf82620001ae565b9050919050565b600073ffffffffffffffffffffffffffffffffffffffff82169050919050565b6200020181620001c2565b81146200020d57600080fd5b50565b610e2080620002206000396000f3fe608060405234801561001057600080fd5b50600436106100935760003560e01c8063aa92f6d611610066578063aa92f6d61461010e578063b927c85a1461012a578063da9861821461015a578063ef161bcb14610176578063f2fde38b146101a757610093565b80632b7ac3f314610098578063715018a6146100b65780638da5cb5b146100c05780638f21d307146100de575b600080fd5b6100a06101c3565b6040516100ad9190610a64565b60405180910390f35b6100be6101e9565b005b6100c86101fd565b6040516100d59190610a49565b60405180910390f35b6100f860048036038101906100f39190610924565b610226565b6040516101059190610abf565b60405180910390f35b6101286004803603810190610123919061094d565b610246565b005b610144600480360381019061013f9190610924565b61041d565b6040516101519190610abf565b60405180910390f35b610174600480360381019061016f91906108af565b61043d565b005b610190600480360381019061018b9190610924565b6104ec565b60405161019e929190610ada565b60405180910390f35b6101c160048036038101906101bc9190610886565b610510565b005b600160009054906101000a900473ffffffffffffffffffffffffffffffffffffffff1681565b6101f1610594565b6101fb6000610612565b565b60008060009054906101000a900473ffffffffffffffffffffffffffffffffffffffff16905090565b600060026000838152602001908152602001600020600101549050919050565b600061025186610226565b9050600081141561028e576040517fc5b27f6100000000000000000000000000000000000000000000000000000000815260040160405180910390fd5b60036000878152602001908152602001600020600085815260200190815260200160002060009054906101000a900460ff16156102f7576040517ff11e76a500000000000000000000000000000000000000000000000000000000815260040160405180910390fd5b60006103028761041d565b9050600160009054906101000a900473ffffffffffffffffffffffffffffffffffffffff1673ffffffffffffffffffffffffffffffffffffffff16639aca8f2a8287898888886040518763ffffffff1660e01b815260040161036996959493929190610b48565b60006040518083038186803b15801561038157600080fd5b505afa158015610395573d6000803e3d6000fd5b50505050600160036000898152602001908152602001600020600087815260200190815260200160002060006101000a81548160ff021916908315150217905550867fd22f578a75834d838c738ce23adc30dc36d36ff16cc9142d8e566bde86bed4c38287878a60405161040c9493929190610b03565b60405180910390a250505050505050565b600060026000838152602001908152602001600020600001549050919050565b610445610594565b60005b848490508110156104e5576104da85858381811061048f577f4e487b7100000000000000000000000000000000000000000000000000000000600052603260045260246000fd5b905060200201358484848181106104cf577f4e487b7100000000000000000000000000000000000000000000000000000000600052603260045260246000fd5b9050604002016106d6565b806001019050610448565b5050505050565b60026020528060005260406000206000915090508060000154908060010154905082565b610518610594565b600073ffffffffffffffffffffffffffffffffffffffff168173ffffffffffffffffffffffffffffffffffffffff161415610588576040517f08c379a000000000000000000000000000000000000000000000000000000000815260040161057f90610a7f565b60405180910390fd5b61059181610612565b50565b61059c61078d565b73ffffffffffffffffffffffffffffffffffffffff166105ba6101fd565b73ffffffffffffffffffffffffffffffffffffffff1614610610576040517f08c379a000000000000000000000000000000000000000000000000000000000815260040161060790610a9f565b60405180910390fd5b565b60008060009054906101000a900473ffffffffffffffffffffffffffffffffffffffff169050816000806101000a81548173ffffffffffffffffffffffffffffffffffffffff021916908373ffffffffffffffffffffffffffffffffffffffff1602179055508173ffffffffffffffffffffffffffffffffffffffff168173ffffffffffffffffffffffffffffffffffffffff167f8be0079c531659141344cd1fd0a4f28419497f9722a3daafe3b4186f6b6457e060405160405180910390a35050565b6010816020013510806106ed575060208160200135115b15610724576040517f174be13200000000000000000000000000000000000000000000000000000000815260040160405180910390fd5b806002600084815260200190815260200160002081816107449190610d74565b905050817f80605c97db3ab099f7682b6aa9d3b6e012efce74bbb5844c2bd9bc95978b3a8382600001358360200135604051610781929190610ada565b60405180910390a25050565b600033905090565b6000813590506107a481610da5565b92915050565b60008083601f8401126107bc57600080fd5b8235905067ffffffffffffffff8111156107d557600080fd5b6020830191508360208202830111156107ed57600080fd5b9250929050565b60008083601f84011261080657600080fd5b8235905067ffffffffffffffff81111561081f57600080fd5b60208301915083604082028301111561083757600080fd5b9250929050565b60008190508260206008028201111561085657600080fd5b92915050565b60008135905061086b81610dbc565b92915050565b60008135905061088081610dd3565b92915050565b60006020828403121561089857600080fd5b60006108a684828501610795565b91505092915050565b600080600080604085870312156108c557600080fd5b600085013567ffffffffffffffff8111156108df57600080fd5b6108eb878288016107aa565b9450945050602085013567ffffffffffffffff81111561090a57600080fd5b610916878288016107f4565b925092505092959194509250565b60006020828403121561093657600080fd5b60006109448482850161085c565b91505092915050565b6000806000806000610180868803121561096657600080fd5b60006109748882890161085c565b955050602061098588828901610871565b945050604061099688828901610871565b93505060606109a788828901610871565b92505060806109b88882890161083e565b9150509295509295909350565b6109ce81610bbc565b82525050565b6109e16101008383610c38565b5050565b6109ee81610c02565b82525050565b6000610a01602683610bab565b9150610a0c82610cba565b604082019050919050565b6000610a24602083610bab565b9150610a2f82610d09565b602082019050919050565b610a4381610bf8565b82525050565b6000602082019050610a5e60008301846109c5565b92915050565b6000602082019050610a7960008301846109e5565b92915050565b60006020820190508181036000830152610a98816109f4565b9050919050565b60006020820190508181036000830152610ab881610a17565b9050919050565b6000602082019050610ad46000830184610a3a565b92915050565b6000604082019050610aef6000830185610a3a565b610afc6020830184610a3a565b9392505050565b6000608082019050610b186000830187610a3a565b610b256020830186610a3a565b610b326040830185610a3a565b610b3f6060830184610a3a565b95945050505050565b60006101a082019050610b5e6000830189610a3a565b610b6b6020830188610a3a565b610b786040830187610a3a565b610b856060830186610a3a565b610b9260808301856109d4565b610ba0610180830184610a3a565b979650505050505050565b600082825260208201905092915050565b6000610bc782610bd8565b9050919050565b6000819050919050565b600073ffffffffffffffffffffffffffffffffffffffff82169050919050565b6000819050919050565b6000610c0d82610c14565b9050919050565b6000610c1f82610bd8565b9050919050565b6000610c3182610bf8565b9050919050565b82818337600083830152505050565b600081016000830180610c5981610c97565b9050610c658184610d82565b505050600181016020830180610c7a81610c97565b9050610c868184610d82565b5050505050565b6000819050919050565b60008135610ca481610dd3565b80915050919050565b60008160001b9050919050565b7f4f776e61626c653a206e6577206f776e657220697320746865207a65726f206160008201527f6464726573730000000000000000000000000000000000000000000000000000602082015250565b7f4f776e61626c653a2063616c6c6572206973206e6f7420746865206f776e6572600082015250565b60007fffffffffffffffffffffffffffffffffffffffffffffffffffffffffffffffff610d5e84610cad565b9350801983169250808416831791505092915050565b610d7e8282610c47565b5050565b610d8b82610c26565b610d9e610d9782610c8d565b8354610d32565b8255505050565b610dae81610bbc565b8114610db957600080fd5b50565b610dc581610bce565b8114610dd057600080fd5b50565b610ddc81610bf8565b8114610de757600080fd5b5056fea2646970667358221220b924dc284928fab992d70cfc3ef6b92d17bd0b559b724f4a160279af97e80d0464736f6c63430008040033",
    "linkReferences": {},
    "deployedLinkReferences": {}
}