{
    "_format": "hh-sol-artifact-1",
    "contractName": "ZKGroups",
    "sourceName": "contracts/ZKGroups.sol",
    "abi": [
        {
            "inputs": [
                {
                    "components": [
                        {
                            "internalType": "address",
                            "name": "contractAddress",
                            "type": "address"
                        },
                        {
                            "internalType": "uint256",
                            "name": "merkleTreeDepth",
                            "type": "uint256"
                        }
                    ],
                    "internalType": "struct IZKGroups.Verifier[]",
                    "name": "_verifiers",
                    "type": "tuple[]"
                }
            ],
            "stateMutability": "nonpayable",
            "type": "constructor"
        },
        {
            "anonymous": false,
            "inputs": [
                {
                    "indexed": false,
                    "internalType": "uint256",
                    "name": "nullifierHash",
                    "type": "uint256"
                }
            ],
            "name": "NullifierHashAdded",
            "type": "event"
        },
        {
            "anonymous": false,
            "inputs": [
                {
                    "indexed": false,
                    "internalType": "uint256",
                    "name": "groupId",
                    "type": "uint256"
                },
                {
                    "indexed": true,
                    "internalType": "bytes32",
                    "name": "name",
                    "type": "bytes32"
                },
                {
                    "indexed": false,
                    "internalType": "uint256",
                    "name": "merkleTreeRoot",
                    "type": "uint256"
                },
                {
                    "indexed": true,
                    "internalType": "uint256",
                    "name": "merkleTreeDepth",
                    "type": "uint256"
                }
            ],
            "name": "OffchainGroupUpdated",
            "type": "event"
        },
        {
            "anonymous": false,
            "inputs": [
                {
                    "indexed": true,
                    "internalType": "address",
                    "name": "previousOwner",
                    "type": "address"
                },
                {
                    "indexed": true,
                    "internalType": "address",
                    "name": "newOwner",
                    "type": "address"
                }
            ],
            "name": "OwnershipTransferred",
            "type": "event"
        },
        {
            "anonymous": false,
            "inputs": [
                {
                    "indexed": true,
                    "internalType": "uint256",
                    "name": "groupId",
                    "type": "uint256"
                },
                {
                    "indexed": false,
                    "internalType": "uint256",
                    "name": "externalNullifier",
                    "type": "uint256"
                },
                {
                    "indexed": false,
                    "internalType": "uint256",
                    "name": "nullifierHash",
                    "type": "uint256"
                },
                {
                    "indexed": false,
                    "internalType": "bytes32",
                    "name": "signal",
                    "type": "bytes32"
                }
            ],
            "name": "ProofVerified",
            "type": "event"
        },
        {
            "inputs": [
                {
                    "internalType": "uint256",
                    "name": "groupId",
                    "type": "uint256"
                }
            ],
            "name": "getOffchainDepth",
            "outputs": [
                {
                    "internalType": "uint256",
                    "name": "",
                    "type": "uint256"
                }
            ],
            "stateMutability": "view",
            "type": "function"
        },
        {
            "inputs": [
                {
                    "internalType": "uint256",
                    "name": "groupId",
                    "type": "uint256"
                }
            ],
            "name": "getOffchainRoot",
            "outputs": [
                {
                    "internalType": "uint256",
                    "name": "",
                    "type": "uint256"
                }
            ],
            "stateMutability": "view",
            "type": "function"
        },
        {
            "inputs": [
                {
                    "internalType": "uint256",
                    "name": "",
                    "type": "uint256"
                }
            ],
            "name": "offchainGroups",
            "outputs": [
                {
                    "internalType": "bytes32",
                    "name": "name",
                    "type": "bytes32"
                },
                {
                    "internalType": "uint256",
                    "name": "merkleTreeRoot",
                    "type": "uint256"
                },
                {
                    "internalType": "uint256",
                    "name": "merkleTreeDepth",
                    "type": "uint256"
                }
            ],
            "stateMutability": "view",
            "type": "function"
        },
        {
            "inputs": [],
            "name": "owner",
            "outputs": [
                {
                    "internalType": "address",
                    "name": "",
                    "type": "address"
                }
            ],
            "stateMutability": "view",
            "type": "function"
        },
        {
            "inputs": [],
            "name": "renounceOwnership",
            "outputs": [],
            "stateMutability": "nonpayable",
            "type": "function"
        },
        {
            "inputs": [
                {
                    "internalType": "address",
                    "name": "newOwner",
                    "type": "address"
                }
            ],
            "name": "transferOwnership",
            "outputs": [],
            "stateMutability": "nonpayable",
            "type": "function"
        },
        {
            "inputs": [
                {
                    "components": [
                        {
                            "internalType": "bytes32",
                            "name": "name",
                            "type": "bytes32"
                        },
                        {
                            "internalType": "uint256",
                            "name": "merkleTreeRoot",
                            "type": "uint256"
                        },
                        {
                            "internalType": "uint256",
                            "name": "merkleTreeDepth",
                            "type": "uint256"
                        }
                    ],
                    "internalType": "struct IZKGroups.OffchainGroup[]",
                    "name": "_offchainGroups",
                    "type": "tuple[]"
                }
            ],
            "name": "updateOffchainGroups",
            "outputs": [],
            "stateMutability": "nonpayable",
            "type": "function"
        },
        {
            "inputs": [
                {
                    "internalType": "uint256",
                    "name": "",
                    "type": "uint256"
                }
            ],
            "name": "verifiers",
            "outputs": [
                {
                    "internalType": "contract IVerifier",
                    "name": "",
                    "type": "address"
                }
            ],
            "stateMutability": "view",
            "type": "function"
        },
        {
            "inputs": [
                {
                    "internalType": "uint256",
                    "name": "groupId",
                    "type": "uint256"
                },
                {
                    "internalType": "bytes32",
                    "name": "signal",
                    "type": "bytes32"
                },
                {
                    "internalType": "uint256",
                    "name": "nullifierHash",
                    "type": "uint256"
                },
                {
                    "internalType": "uint256",
                    "name": "externalNullifier",
                    "type": "uint256"
                },
                {
                    "internalType": "uint256[8]",
                    "name": "proof",
                    "type": "uint256[8]"
                }
            ],
            "name": "verifyOffchainGroupProof",
            "outputs": [],
            "stateMutability": "nonpayable",
            "type": "function"
        }
    ],
    "bytecode": "0x60806040523480156200001157600080fd5b5060405162001ba838038062001ba883398181016040528101906200003791906200034c565b620000576200004b6200015d60201b60201c565b6200016560201b60201c565b60005b81518160ff1610156200015557818160ff1681518110620000a4577f4e487b7100000000000000000000000000000000000000000000000000000000600052603260045260246000fd5b60200260200101516000015160016000848460ff1681518110620000f1577f4e487b7100000000000000000000000000000000000000000000000000000000600052603260045260246000fd5b602002602001015160200151815260200190815260200160002060006101000a81548173ffffffffffffffffffffffffffffffffffffffff021916908373ffffffffffffffffffffffffffffffffffffffff1602179055508060010190506200005a565b5050620004d1565b600033905090565b60008060009054906101000a900473ffffffffffffffffffffffffffffffffffffffff169050816000806101000a81548173ffffffffffffffffffffffffffffffffffffffff021916908373ffffffffffffffffffffffffffffffffffffffff1602179055508173ffffffffffffffffffffffffffffffffffffffff168173ffffffffffffffffffffffffffffffffffffffff167f8be0079c531659141344cd1fd0a4f28419497f9722a3daafe3b4186f6b6457e060405160405180910390a35050565b6000620002406200023a84620003ba565b62000391565b905080838252602082019050828560408602820111156200026057600080fd5b60005b85811015620002945781620002798882620002e2565b84526020840193506040830192505060018101905062000263565b5050509392505050565b600081519050620002af816200049d565b92915050565b600082601f830112620002c757600080fd5b8151620002d984826020860162000229565b91505092915050565b600060408284031215620002f557600080fd5b62000301604062000391565b9050600062000313848285016200029e565b6000830152506020620003298482850162000335565b60208301525092915050565b6000815190506200034681620004b7565b92915050565b6000602082840312156200035f57600080fd5b600082015167ffffffffffffffff8111156200037a57600080fd5b6200038884828501620002b5565b91505092915050565b60006200039d620003b0565b9050620003ab828262000427565b919050565b6000604051905090565b600067ffffffffffffffff821115620003d857620003d76200045d565b5b602082029050602081019050919050565b6000620003f682620003fd565b9050919050565b600073ffffffffffffffffffffffffffffffffffffffff82169050919050565b6000819050919050565b62000432826200048c565b810181811067ffffffffffffffff821117156200045457620004536200045d565b5b80604052505050565b7f4e487b7100000000000000000000000000000000000000000000000000000000600052604160045260246000fd5b6000601f19601f8301169050919050565b620004a881620003e9565b8114620004b457600080fd5b50565b620004c2816200041d565b8114620004ce57600080fd5b50565b6116c780620004e16000396000f3fe608060405234801561001057600080fd5b50600436106100935760003560e01c806361bcf78f1161006657806361bcf78f14610132578063715018a6146101625780638da5cb5b1461016c578063ac1eff681461018a578063f2fde38b146101ba57610093565b8063114433f1146100985780634d2e71d3146100ca5780635cb63165146100e657806361b785e514610102575b600080fd5b6100b260048036038101906100ad9190610c94565b6101d6565b6040516100c193929190611098565b60405180910390f35b6100e460048036038101906100df9190610cbd565b610200565b005b61010060048036038101906100fb9190610c4f565b610366565b005b61011c60048036038101906101179190610c94565b610479565b604051610129919061118a565b60405180910390f35b61014c60048036038101906101479190610c94565b610499565b604051610159919061118a565b60405180910390f35b61016a6104b9565b005b6101746104cd565b6040516101819190611036565b60405180910390f35b6101a4600480360381019061019f9190610c94565b6104f6565b6040516101b191906110cf565b60405180910390f35b6101d460048036038101906101cf9190610c26565b610529565b005b60026020528060005260406000206000915090508060000154908060010154908060020154905083565b600061020b86610479565b90506000811415610251576040517f08c379a00000000000000000000000000000000000000000000000000000000081526004016102489061110a565b60405180910390fd5b60036000878152602001908152602001600020600085815260200190815260200160002060009054906101000a900460ff16156102c3576040517f08c379a00000000000000000000000000000000000000000000000000000000081526004016102ba9061114a565b60405180910390fd5b60006102ce87610499565b905060006001600083815260200190815260200160002060009054906101000a900473ffffffffffffffffffffffffffffffffffffffff1690506103168784888888866105ad565b61032088876108a6565b877f81036f5af568b8593b53842d1df1298b3f05cc4b5373c906f76f44b06bbb36aa87878a604051610354939291906111ce565b60405180910390a25050505050505050565b61036e6108e7565b60005b828290508160ff1610156104745760007f30644e72e131a029b85045b68181585d2833e84879b9709143e1f593f000000184848460ff168181106103de577f4e487b7100000000000000000000000000000000000000000000000000000000600052603260045260246000fd5b905060600201600001356040516020016103f89190611010565b6040516020818303038152906040528051906020012060001c61041b91906113b2565b90506104688185858560ff1681811061045d577f4e487b7100000000000000000000000000000000000000000000000000000000600052603260045260246000fd5b905060600201610965565b81600101915050610371565b505050565b600060026000838152602001908152602001600020600101549050919050565b600060026000838152602001908152602001600020600201549050919050565b6104c16108e7565b6104cb6000610a7c565b565b60008060009054906101000a900473ffffffffffffffffffffffffffffffffffffffff16905090565b60016020528060005260406000206000915054906101000a900473ffffffffffffffffffffffffffffffffffffffff1681565b6105316108e7565b600073ffffffffffffffffffffffffffffffffffffffff168173ffffffffffffffffffffffffffffffffffffffff1614156105a1576040517f08c379a0000000000000000000000000000000000000000000000000000000008152600401610598906110ea565b60405180910390fd5b6105aa81610a7c565b50565b60006105b887610b40565b90508173ffffffffffffffffffffffffffffffffffffffff16635fe8c13b60405180604001604052808660006008811061061b577f4e487b7100000000000000000000000000000000000000000000000000000000600052603260045260246000fd5b602002013581526020018660016008811061065f577f4e487b7100000000000000000000000000000000000000000000000000000000600052603260045260246000fd5b602002013581525060405180604001604052806040518060400160405280896002600881106106b7577f4e487b7100000000000000000000000000000000000000000000000000000000600052603260045260246000fd5b60200201358152602001896003600881106106fb577f4e487b7100000000000000000000000000000000000000000000000000000000600052603260045260246000fd5b6020020135815250815260200160405180604001604052808960046008811061074d577f4e487b7100000000000000000000000000000000000000000000000000000000600052603260045260246000fd5b6020020135815260200189600560088110610791577f4e487b7100000000000000000000000000000000000000000000000000000000600052603260045260246000fd5b60200201358152508152506040518060400160405280886006600881106107e1577f4e487b7100000000000000000000000000000000000000000000000000000000600052603260045260246000fd5b6020020135815260200188600760088110610825577f4e487b7100000000000000000000000000000000000000000000000000000000600052603260045260246000fd5b602002013581525060405180608001604052808c81526020018b81526020018781526020018a8152506040518563ffffffff1660e01b815260040161086d9493929190611051565b60006040518083038186803b15801561088557600080fd5b505afa158015610899573d6000803e3d6000fd5b5050505050505050505050565b600160036000848152602001908152602001600020600083815260200190815260200160002060006101000a81548160ff0219169083151502179055505050565b6108ef610b77565b73ffffffffffffffffffffffffffffffffffffffff1661090d6104cd565b73ffffffffffffffffffffffffffffffffffffffff1614610963576040517f08c379a000000000000000000000000000000000000000000000000000000000815260040161095a9061112a565b60405180910390fd5b565b8060400135600073ffffffffffffffffffffffffffffffffffffffff166001600083815260200190815260200160002060009054906101000a900473ffffffffffffffffffffffffffffffffffffffff1673ffffffffffffffffffffffffffffffffffffffff161415610a0d576040517f08c379a0000000000000000000000000000000000000000000000000000000008152600401610a049061116a565b60405180910390fd5b81600260008581526020019081526020016000208181610a2d919061161b565b905050816040013582600001357f351c24cff8ba0274f2bb243ad74c79e6fb0b879e61b1a1780fee930f39020d4d858560200135604051610a6f9291906111a5565b60405180910390a3505050565b60008060009054906101000a900473ffffffffffffffffffffffffffffffffffffffff169050816000806101000a81548173ffffffffffffffffffffffffffffffffffffffff021916908373ffffffffffffffffffffffffffffffffffffffff1602179055508173ffffffffffffffffffffffffffffffffffffffff168173ffffffffffffffffffffffffffffffffffffffff167f8be0079c531659141344cd1fd0a4f28419497f9722a3daafe3b4186f6b6457e060405160405180910390a35050565b6000600882604051602001610b559190610ff5565b6040516020818303038152906040528051906020012060001c901c9050919050565b600033905090565b600081359050610b8e8161164c565b92915050565b60008083601f840112610ba657600080fd5b8235905067ffffffffffffffff811115610bbf57600080fd5b602083019150836060820283011115610bd757600080fd5b9250929050565b600081905082602060080282011115610bf657600080fd5b92915050565b600081359050610c0b81611663565b92915050565b600081359050610c208161167a565b92915050565b600060208284031215610c3857600080fd5b6000610c4684828501610b7f565b91505092915050565b60008060208385031215610c6257600080fd5b600083013567ffffffffffffffff811115610c7c57600080fd5b610c8885828601610b94565b92509250509250929050565b600060208284031215610ca657600080fd5b6000610cb484828501610c11565b91505092915050565b60008060008060006101808688031215610cd657600080fd5b6000610ce488828901610c11565b9550506020610cf588828901610bfc565b9450506040610d0688828901610c11565b9350506060610d1788828901610c11565b9250506080610d2888828901610bde565b9150509295509295909350565b6000610d418383610dcb565b60408301905092915050565b6000610d598383610fd7565b60208301905092915050565b610d6e816112b3565b82525050565b610d7d81611223565b610d87818461126b565b9250610d9282611205565b8060005b83811015610dc3578151610daa8782610d35565b9650610db583611244565b925050600181019050610d96565b505050505050565b610dd48161122e565b610dde8184611276565b9250610de98261120f565b8060005b83811015610e1a578151610e018782610d4d565b9650610e0c83611251565b925050600181019050610ded565b505050505050565b610e2b8161122e565b610e358184611281565b9250610e408261120f565b8060005b83811015610e71578151610e588782610d4d565b9650610e6383611251565b925050600181019050610e44565b505050505050565b610e8281611239565b610e8c818461128c565b9250610e9782611219565b8060005b83811015610ec8578151610eaf8782610d4d565b9650610eba8361125e565b925050600181019050610e9b565b505050505050565b610ed9816112c5565b82525050565b610ef0610eeb826112c5565b6113a8565b82525050565b610eff8161130b565b82525050565b6000610f12602683611297565b9150610f1d82611474565b604082019050919050565b6000610f35601d83611297565b9150610f40826114c3565b602082019050919050565b6000610f58602083611297565b9150610f63826114ec565b602082019050919050565b6000610f7b602783611297565b9150610f8682611515565b604082019050919050565b6000610f9e602083611297565b9150610fa982611564565b602082019050919050565b6000610fc16009836112a8565b9150610fcc8261158d565b600982019050919050565b610fe0816112ef565b82525050565b610fef816112ef565b82525050565b60006110018284610edf565b60208201915081905092915050565b600061101b82610fb4565b91506110278284610edf565b60208201915081905092915050565b600060208201905061104b6000830184610d65565b92915050565b6000610180820190506110676000830187610e22565b6110746040830186610d74565b61108160c0830185610e22565b61108f610100830184610e79565b95945050505050565b60006060820190506110ad6000830186610ed0565b6110ba6020830185610fe6565b6110c76040830184610fe6565b949350505050565b60006020820190506110e46000830184610ef6565b92915050565b6000602082019050818103600083015261110381610f05565b9050919050565b6000602082019050818103600083015261112381610f28565b9050919050565b6000602082019050818103600083015261114381610f4b565b9050919050565b6000602082019050818103600083015261116381610f6e565b9050919050565b6000602082019050818103600083015261118381610f91565b9050919050565b600060208201905061119f6000830184610fe6565b92915050565b60006040820190506111ba6000830185610fe6565b6111c76020830184610fe6565b9392505050565b60006060820190506111e36000830186610fe6565b6111f06020830185610fe6565b6111fd6040830184610ed0565b949350505050565b6000819050919050565b6000819050919050565b6000819050919050565b600060029050919050565b600060029050919050565b600060049050919050565b6000602082019050919050565b6000602082019050919050565b6000602082019050919050565b600081905092915050565b600081905092915050565b600081905092915050565b600081905092915050565b600082825260208201905092915050565b600081905092915050565b60006112be826112cf565b9050919050565b6000819050919050565b600073ffffffffffffffffffffffffffffffffffffffff82169050919050565b6000819050919050565b6000611304826112c5565b9050919050565b60006113168261131d565b9050919050565b6000611328826112cf565b9050919050565b600061133a826112ef565b9050919050565b6000810160008301806113538161142e565b905061135f81846115f8565b50505060018101602083018061137481611444565b90506113808184611629565b50505060028101604083018061139581611444565b90506113a18184611629565b5050505050565b6000819050919050565b60006113bd826112ef565b91506113c8836112ef565b9250826113d8576113d76113e3565b5b828206905092915050565b7f4e487b7100000000000000000000000000000000000000000000000000000000600052601260045260246000fd5b600061141d82611467565b9050919050565b6000819050919050565b6000813561143b81611663565b80915050919050565b600081356114518161167a565b80915050919050565b60008160001b9050919050565b60008160001c9050919050565b7f4f776e61626c653a206e6577206f776e657220697320746865207a65726f206160008201527f6464726573730000000000000000000000000000000000000000000000000000602082015250565b7f4f6666636861696e2067726f757020646f6573206e6f74206578697374000000600082015250565b7f4f776e61626c653a2063616c6c6572206973206e6f7420746865206f776e6572600082015250565b7f796f752063616e6e6f7420757365207468652073616d65206e756c6c6966696560008201527f7220747769636500000000000000000000000000000000000000000000000000602082015250565b7f4d65726b6c65547265654465707468206973206e6f7420737570706f72746564600082015250565b7f4f6666636861696e5f0000000000000000000000000000000000000000000000600082015250565b60007fffffffffffffffffffffffffffffffffffffffffffffffffffffffffffffffff6115e28461145a565b9350801983169250808416831791505092915050565b611601826112f9565b61161461160d82611412565b83546115b6565b8255505050565b6116258282611341565b5050565b6116328261132f565b61164561163e82611424565b83546115b6565b8255505050565b611655816112b3565b811461166057600080fd5b50565b61166c816112c5565b811461167757600080fd5b50565b611683816112ef565b811461168e57600080fd5b5056fea264697066735822122090bb82eed8f4c6b1676a8299467714da4aba4bf4ee42730a7cf1e528cf68f53d64736f6c63430008040033",
    "linkReferences": {},
    "deployedLinkReferences": {}
}